{
  "_format": "hh-sol-artifact-1",
  "contractName": "ModifyVariable",
  "sourceName": "contracts/ModifyVariable.sol",
  "abi": [
    {
      "inputs": [
        {
          "internalType": "uint256",
          "name": "_x",
          "type": "uint256"
        },
        {
          "internalType": "string",
          "name": "_str",
          "type": "string"
        }
      ],
      "stateMutability": "nonpayable",
      "type": "constructor"
    },
    {
      "inputs": [],
      "name": "modifyString",
      "outputs": [],
      "stateMutability": "nonpayable",
      "type": "function"
    },
    {
      "inputs": [],
      "name": "modifyToLeet",
      "outputs": [],
      "stateMutability": "nonpayable",
      "type": "function"
    },
    {
      "inputs": [],
      "name": "str",
      "outputs": [
        {
          "internalType": "string",
          "name": "",
          "type": "string"
        }
      ],
      "stateMutability": "view",
      "type": "function"
    },
    {
      "inputs": [],
      "name": "x",
      "outputs": [
        {
          "internalType": "uint256",
          "name": "",
          "type": "uint256"
        }
      ],
      "stateMutability": "view",
      "type": "function"
    }
  ],
  "bytecode": "0x608060405234801561001057600080fd5b5060405161070d38038061070d83398181016040528101906100329190610177565b81600081905550806001908051906020019061004f929190610057565b505050610347565b8280546100639061025e565b90600052602060002090601f01602090048101928261008557600085556100cc565b82601f1061009e57805160ff19168380011785556100cc565b828001600101855582156100cc579182015b828111156100cb5782518255916020019190600101906100b0565b5b5090506100d991906100dd565b5090565b5b808211156100f65760008160009055506001016100de565b5090565b600061010d610108846101f0565b6101cb565b90508281526020810184848401111561012557600080fd5b61013084828561022b565b509392505050565b600082601f83011261014957600080fd5b81516101598482602086016100fa565b91505092915050565b60008151905061017181610330565b92915050565b6000806040838503121561018a57600080fd5b600061019885828601610162565b925050602083015167ffffffffffffffff8111156101b557600080fd5b6101c185828601610138565b9150509250929050565b60006101d56101e6565b90506101e18282610290565b919050565b6000604051905090565b600067ffffffffffffffff82111561020b5761020a6102f0565b5b6102148261031f565b9050602081019050919050565b6000819050919050565b60005b8381101561024957808201518184015260208101905061022e565b83811115610258576000848401525b50505050565b6000600282049050600182168061027657607f821691505b6020821081141561028a576102896102c1565b5b50919050565b6102998261031f565b810181811067ffffffffffffffff821117156102b8576102b76102f0565b5b80604052505050565b7f4e487b7100000000000000000000000000000000000000000000000000000000600052602260045260246000fd5b7f4e487b7100000000000000000000000000000000000000000000000000000000600052604160045260246000fd5b6000601f19601f8301169050919050565b61033981610221565b811461034457600080fd5b50565b6103b7806103566000396000f3fe608060405234801561001057600080fd5b506004361061004c5760003560e01c80630c55699c146100515780631abd9de41461006f578063c15bae8414610079578063e164062214610097575b600080fd5b6100596100a1565b604051610066919061029b565b60405180910390f35b6100776100a7565b005b6100816100f5565b60405161008e9190610279565b60405180910390f35b61009f610183565b005b60005481565b6040518060400160405280600981526020017f426f6d626f636c61740000000000000000000000000000000000000000000000815250600190805190602001906100f292919061018e565b50565b600180546101029061030f565b80601f016020809104026020016040519081016040528092919081815260200182805461012e9061030f565b801561017b5780601f106101505761010080835404028352916020019161017b565b820191906000526020600020905b81548152906001019060200180831161015e57829003601f168201915b505050505081565b610539600081905550565b82805461019a9061030f565b90600052602060002090601f0160209004810192826101bc5760008555610203565b82601f106101d557805160ff1916838001178555610203565b82800160010185558215610203579182015b828111156102025782518255916020019190600101906101e7565b5b5090506102109190610214565b5090565b5b8082111561022d576000816000905550600101610215565b5090565b600061023c826102b6565b61024681856102c1565b93506102568185602086016102dc565b61025f81610370565b840191505092915050565b610273816102d2565b82525050565b600060208201905081810360008301526102938184610231565b905092915050565b60006020820190506102b0600083018461026a565b92915050565b600081519050919050565b600082825260208201905092915050565b6000819050919050565b60005b838110156102fa5780820151818401526020810190506102df565b83811115610309576000848401525b50505050565b6000600282049050600182168061032757607f821691505b6020821081141561033b5761033a610341565b5b50919050565b7f4e487b7100000000000000000000000000000000000000000000000000000000600052602260045260246000fd5b6000601f19601f830116905091905056fea2646970667358221220a5a3d9d7beb800da3c73c756c5c90bed0bd09e977160c0f4d40e78ffaeeb5caf64736f6c63430008040033",
  "linkReferences": {},
  "deployedLinkReferences": {}
}